:020000040800F2
:1000000000000320513B00081D3900082539000875
:100010002D390008353900083D390008000000007E
:10002000000000000000000000000000453900084A
:100030005339000800000000613900086F390008DA
:10004000A13B0008A13B0008A13B0008A13B000820
:10005000A13B0008A13B00087F390008A13B000834
:10006000A13B0008A13B0008A13B0008A13B000800
:10007000A13B0008A13B0008A13B0008A13B0008F0
:10008000A13B0008A13B0008A13B0008A13B0008E0
:10009000A13B0008A13B0008A13B0008A13B0008D0
:1000A000A13B0008A13B0008A13B0008A13B0008C0
:1000B000A13B0008A13B0008A13B0008A13B0008B0
:1000C000A13B0008A13B0008A13B0008A13B0008A0
:1000D000A13B0008A13B0008A13B0008A13B000890
:1000E000A13B0008A13B0008A13B0008A13B000880
:1000F000A13B0008A13B0008A13B0008A13B000870
:10010000A13B0008A13B0008A13B0008A13B00085F
:10011000A13B0008A13B0008A13B0008A13B00084F
:10012000A13B0008A13B0008A13B0008A13B00083F
:10013000A13B0008A13B0008A13B0008A13B00082F
:10014000A13B0008A13B0008A13B0008A13B00081F
:10015000A13B0008A13B0008A13B0008A13B00080F
:10016000A13B0008A13B0008A13B0008A13B0008FF
:10017000A13B0008A13B0008A13B000800000000D3
:10018000A13B0008A13B0008A13B0008A13B0008DF
:10019000A13B0008A13B0008A13B0008A13B0008CF
:0C01A0008D390008A13B0008A13B0008BD
:1001B00010B5054C237833B9044B13B10448AFF3A1
:1001C00000800123237010BD3402002000000000D5
:1001D00088DA000808B5034B1BB103490348AFF3A5
:1001E000008008BD000000003802002088DA000806
:1001F00001F0FF01102A2BDB10F0070F08D010F8D8
:10020000013B013A8B422DD010F0070F42B3F6D1DB
:10021000F0B441EA012141EA014122F007047FF0F4
:1002200000070023F0E80256083C85EA010586EA4B
:10023000010685FA47F5A3FA87F586FA47F6A5FA87
:1002400087F68EB9EED1F0BC01F0FF0102F0070293
:1002500032B110F8013B013A83EA010313B1F8D13E
:100260000020704701387047002D06BF354603381F
:10027000073815F0010F07D1013015F4807F02BF58
:10028000013015F4C03F0130F0BC0138704700BFA9
:10029000034613F8012B002AFBD1181A01387047C6
:1002A00081F0004102E000BF83F0004330B54FEA27
:1002B00041044FEA430594EA050F08BF90EA020F94
:1002C0001FBF54EA000C55EA020C7FEA645C7FEA27
:1002D000655C00F0E2804FEA5454D4EB5555B8BF4A
:1002E0006D420CDD2C4480EA020281EA030382EABB
:1002F000000083EA010180EA020281EA0303362D4D
:1003000088BF30BD11F0004F4FEA01314FF4801C1F
:100310004CEA113102D0404261EB410113F0004F31
:100320004FEA03334CEA133302D0524263EB4303E8
:1003300094EA050F00F0A780A4F10104D5F1200E86
:100340000DDB02FA0EFC22FA05F2801841F10001E1
:1003500003FA0EF2801843FA05F359410EE0A5F1B5
:1003600020050EF1200E012A03FA0EFC28BF4CF0E6
:10037000020C43FA05F3C01851EBE37101F000459C
:1003800007D54FF0000EDCF1000C7EEB00006EEBA9
:100390000101B1F5801F1BD3B1F5001F0CD3490833
:1003A0005FEA30004FEA3C0C04F101044FEA44528A
:1003B00012F5800F80F09A80BCF1004F08BF5FEA11
:1003C000500C50F1000041EB045141EA050130BDF1
:1003D0005FEA4C0C404141EB0101013C28BFB1F503
:1003E000801FE9D291F0000F04BF01460020B1FA4E
:1003F00081F308BF2033A3F10B03B3F120020CDA21
:100400000C3208DD02F1140CC2F10C0201FA0CF0FE
:1004100021FA02F10CE002F11402D8BFC2F1200C63
:1004200001FA02F120FA0CFCDCBF41EA0C01904019
:10043000E41AA2BF01EB0451294330BD6FEA040462
:100440001F3C1CDA0C340EDC04F11404C4F120024D
:1004500020FA04F001FA02F340EA030021FA04F35F
:1004600045EA030130BDC4F10C04C4F1200220FAB6
:1004700002F001FA04F340EA0300294630BD21FAF4
:1004800004F0294630BD94F0000F83F4801306BFBA
:1004900081F480110134013D4EE77FEA645C18BFAE
:1004A0007FEA655C29D094EA050F08BF90EA020F45
:1004B00005D054EA000C04BF1946104630BD91EA3D
:1004C000030F1EBF0021002030BD5FEA545C05D140
:1004D0004000494128BF41F0004130BD14F580047F
:1004E0003CBF01F5801130BD01F0004545F0FE41F3
:1004F00041F470014FF0000030BD7FEA645C1ABF28
:10050000194610467FEA655C1CBF0B46024650EA5E
:10051000013406BF52EA033591EA030F41F400218A
:1005200030BD00BF90F0000F04BF0021704730B510
:100530004FF4806404F132044FF000054FF00001E5
:1005400050E700BF90F0000F04BF0021704730B5A6
:100550004FF4806404F1320410F0004548BF40427B
:100560004FF000013EE700BF42004FEAE2014FEAD0
:1005700031014FEA02701FBF12F07F4393F07F4FAB
:1005800081F06051704732F07F4208BF704793F0AE
:100590007F4F04BF41F40021704730B54FF46074C1
:1005A00001F0004521F000411CE700BF50EA0102C4
:1005B00008BF704730B54FF000050AE050EA01026D
:1005C00008BF704730B511F0004502D5404261EBDD
:1005D00041014FF4806404F132045FEA915C3FF41E
:1005E000D8AE4FF003025FEADC0C18BF03325FEABB
:1005F000DC0C18BF033202EBDC02C2F1200300FA6C
:1006000003FC20FA02F001FA03FE40EA0E0021FA90
:1006100002F11444BDE600BF70B54FF0FF0C4CF47E
:10062000E06C1CEA11541DBF1CEA135594EA0C0F30
:1006300095EA0C0F00F0DEF82C4481EA030621EA6B
:100640004C5123EA4C5350EA013518BF52EA0335A6
:1006500041F4801143F4801338D0A0FB02CE4FF058
:100660000005E1FB02E506F00042E0FB03E54FF088
:100670000006E1FB03569CF0000F18BF4EF0010E80
:10068000A4F1FF04B6F5007F64F5407404D25FEA7C
:100690004E0E6D4146EB060642EAC62141EA55512F
:1006A0004FEAC52040EA5E504FEACE2EB4F1FD0C71
:1006B00088BFBCF5E06F1ED8BEF1004F08BF5FEAEF
:1006C000500E50F1000041EB045170BD06F00046A1
:1006D00046EA010140EA020081EA0301B4EB5C044E
:1006E000C2BFD4EB0C0541EA045170BD41F4801146
:1006F0004FF0000E013C00F3AB8014F1360FDEBF6B
:10070000002001F0004170BDC4F10004203C35DA46
:100710000C341BDC04F11404C4F1200500FA05F3C9
:1007200020FA04F001FA05F240EA020001F000426A
:1007300021F0004110EBD37021FA04F642EB0601E0
:100740005EEA430E08BF20EAD37070BDC4F10C040A
:10075000C4F1200500FA04F320FA05F001FA04F2CE
:1007600040EA020001F0004110EBD37041F10001BA
:100770005EEA430E08BF20EAD37070BDC4F12005C5
:1007800000FA05F24EEA020E20FA04F301FA05F22D
:1007900043EA020321FA04F001F0004121FA04F2D5
:1007A00020EA020000EBD3705EEA430E08BF20EAA5
:1007B000D37070BD94F0000F0FD101F000464000DF
:1007C00041EB010111F4801F08BF013CF7D041EA61
:1007D000060195F0000F18BF704703F00046520065
:1007E00043EB030313F4801F08BF013DF7D043EA36
:1007F0000603704794EA0C0F0CEA135518BF95EAEC
:100800000C0F0CD050EA410618BF52EA4306D1D172
:1008100081EA030101F000414FF0000070BD50EA91
:10082000410606BF1046194652EA430619D094EA1B
:100830000C0F02D150EA013613D195EA0C0F05D105
:1008400052EA03361CBF104619460AD181EA030159
:1008500001F0004141F0FE4141F470014FF0000011
:1008600070BD41F0FE4141F4780170BD70B54FF0AC
:10087000FF0C4CF4E06C1CEA11541DBF1CEA13552C
:1008800094EA0C0F95EA0C0F00F0A7F8A4EB05040E
:1008900081EA030E52EA03354FEA013100F0888005
:1008A0004FEA03334FF0805545EA131343EA1263CE
:1008B0004FEA022245EA111545EA10654FEA002683
:1008C0000EF000419D4208BF964244F1FD0404F53C
:1008D000407402D25B084FEA3202B61A65EB030598
:1008E0005B084FEA32024FF480104FF4002CB6EB55
:1008F000020E75EB030E22BFB61A754640EA0C00D5
:100900005B084FEA3202B6EB020E75EB030E22BF14
:10091000B61A754640EA5C005B084FEA3202B6EB55
:10092000020E75EB030E22BFB61A754640EA9C0014
:100930005B084FEA3202B6EB020E75EB030E22BFE4
:10094000B61A754640EADC0055EA060E18D04FEAA2
:10095000051545EA16754FEA06164FEAC30343EA42
:1009600052734FEAC2025FEA1C1CC0D111F4801F0F
:100970000BD141EA00014FF000004FF0004CB6E708
:1009800011F4801F04BF01430020B4F1FD0C88BFA7
:10099000BCF5E06F3FF6AFAEB5EB030C04BFB6EBB2
:1009A000020C5FEA500C50F1000041EB045170BDA5
:1009B0000EF0004E4EEA113114EB5C04C2BFD4EBD2
:1009C0000C0541EA045170BD41F480114FF0000E56
:1009D000013C90E645EA060E8DE60CEA135594EAD2
:1009E0000C0F08BF95EA0C0F3FF43BAF94EA0C0FD5
:1009F0000AD150EA01347FF434AF95EA0C0F7FF44A
:100A000025AF104619462CE795EA0C0F06D152EA9D
:100A100003353FF4FDAE1046194622E750EA410681
:100A200018BF52EA43067FF4C5AE50EA41047FF492
:100A30000DAF52EA43057FF4EBAE12E74FF0FF3CF7
:100A400006E000BF4FF0010C02E000BF4FF0010CC8
:100A50004DF804CD4FEA410C7FEA6C5C4FEA430C41
:100A600018BF7FEA6C5C1BD001B050EA410C0CBF90
:100A700052EA430C91EA030F02BF90EA020F0020F2
:100A8000704710F1000F91EA030F58BF994208BF59
:100A900090422CBFD8176FEAE37040F00100704716
:100AA0004FEA410C7FEA6C5C02D150EA013C07D16D
:100AB0004FEA430C7FEA6C5CD6D152EA033CD3D0B8
:100AC0005DF8040B704700BF8446104662468C46B2
:100AD0001946634600E000BF01B5FFF7B7FF0028E5
:100AE00048BF10F1000F01BD4DF808EDFFF7F4FF0E
:100AF0000CBF012000205DF808FB00BF4DF808ED99
:100B0000FFF7EAFF34BF012000205DF808FB00BFBB
:100B10004DF808EDFFF7E0FF94BF012000205DF8DD
:100B200008FB00BF4DF808EDFFF7CEFF94BF012092
:100B300000205DF808FB00BF4DF808EDFFF7C4FF8B
:100B400034BF012000205DF808FB00BF4FEA410CD4
:100B50007FEA6C5C02D150EA013C0AD14FEA430CB7
:100B60007FEA6C5C02D152EA033C02D14FF00000F4
:100B700070474FF0010070474FEA410212F5001232
:100B800015D211D56FF47873B3EB625212D94FEAD4
:100B9000C12343F0004343EA505311F0004F23FABE
:100BA00002F018BF404270474FF00000704750EA13
:100BB000013005D111F0004008BF6FF000407047D0
:100BC0004FF00000704700BF53B94AB9002908BF71
:100BD00000281CBF4FF0FF314FF0FF3000F088B904
:100BE000ADF1080C6DE904CE00F006F8DDF804E084
:100BF000DDE9022304B070472DE9F047089D8E46D9
:100C000004468846002B4AD18A42174662D9B2FA76
:100C100082F64EB1C6F1200301FA06F820FA03F37A
:100C2000B74043EA0808B4404FEA174E1FFA87FC62
:100C3000B8FBFEF1230C0EFB118843EA084301FBCD
:100C40000CF29A4209D9FB1801F1FF3080F0EA80DA
:100C50009A4240F2E78002393B449A1AA3B2B2FBAF
:100C6000FEF00EFB102243EA024300FB0CFC9C4505
:100C700009D9FB1800F1FF3280F0D6809C4540F284
:100C8000D3803B44023840EA0140A3EB0C0300212F
:100C90001DB1F3400022C5E90032BDE8F0878B4268
:100CA00005D90DB1C5E9000100210846F5E7B3FA01
:100CB00083F1002946D1734502D3824200F20581B7
:100CC000841A6EEB030201209046002DE5D0C5E9A1
:100CD0000048E2E7002A00F09080B2FA82F6002E87
:100CE00040F0A4808A1A030C4FEA174E80B2BCB2BF
:100CF0000121B2FBFEFC0EFB1C2243EA024304FB73
:100D00000CF29A4207D9FB180CF1FF3802D29A4232
:100D100000F2E080C4469B1AB3FBFEF20EFB1233D6
:100D200040EA034302FB04F49C4207D9FB1802F19A
:100D3000FF3002D29C4200F2CA8002461B1B42EAEC
:100D40000C40A5E7C1F120068B4022FA06F71F43AD
:100D50000EFA01F420FA06F32EFA06FE4FEA1749BE
:100D6000234300FA01F81FFA87FCBEFBF9F01C0CC4
:100D700009FB10EE44EA0E4400FB0CFEA64502FA05
:100D800001F209D93C1900F1FF3A80F09C80A64598
:100D900040F2998002383C44A4EB0E041FFA83FE13
:100DA000B4FBF9F309FB13444EEA044403FB0CFCC7
:100DB000A44508D93C1903F1FF3E80F08280A44588
:100DC0007FD9023B3C4443EA0040A4EB0C04A0FB67
:100DD00002EC64457346E14662D35FD05DB1B8EB87
:100DE000030264EB090404FA06F622FA01F31E4337
:100DF000CC40C5E9006400214FE7B1FBF2FC010CD7
:100E000041EA0E4180B240EA01423B4638463C4648
:100E1000B846BE462026B1FBF7F1A2EB080241EA34
:100E20000C4166E7014618E710462CE7C6F12002A0
:100E30002EFA02F3B740B14020FA02F24FEA174E01
:100E40000A43B3FBFEF8BCB20EFB1833110C41EAA7
:100E5000034108FB04F9B04089454FEA104380B2D2
:100E60003ED9791808F1FF3C01D289451FD8A1EB82
:100E70000901B1FBFEF909FB04F80EFB191192B24E
:100E800042EA0142424529D2BA1809F1FF31C4D2DF
:100E90004245C2D2A9F102013A44BEE7F0459DD2D3
:100EA000BEEB02036CEB070C0138E14696E7A7EBBB
:100EB00009094944A8F1020CB1FBFEF909FB04F849
:100EC000DBE773467FE7504666E70846FDE63B44AE
:100ED000023A33E7ACF1020C3B441CE749469CE77D
:100EE000A1EB0901C446B1FBFEF909FB04F8C4E714
:100EF000704700BF80B584B000AF0023FB601023B3
:100F0000FB710023BB6016E0114804F0E1FD0A21EB
:100F10000F4804F0E2FE0346002B06D10C4804F013
:100F200067FF0246FB681344FB60094804F0A2FE19
:100F3000BB680133BB60FB79BA689A42E4DBFB799A
:100F4000FA68B2FBF3F318461037BD4680BD00BF08
:100F50007002002080B582B000AF0A48FFF7CAFFD8
:100F600078607B68642203FB02F2074BA3FB021349
:100F7000D21A52081344DB0ADBB218460837BD46C2
:100F800080BD00BF700200200101100080B500AFDD
:100F900003F062F94FF05041002003F0DFF91149EE
:100FA000012003F0DBF9002003F03CFA4FF07F4012
:100FB00003F0D2FA012003F035FA4FF07F4003F03E
:100FC000CBFA0121002003F03DFA0021012003F0BB
:100FD00039FA012003F026FA034B00221A6000BF01
:100FE00080BD00BF00B004D00000002080B582B0FA
:100FF00000AF6421204805F045FD00211F4806F0A0
:10100000D7FD1F4B7B6002E07B68013B7B601D4B83
:101010001B78DBB2002B02D17B68002BF4D1194B7B
:1010200000221A70184B1B68012B0ED101210020E1
:1010300003F008FA0021012003F004FA012003F074
:10104000F1F9114B00221A600DE00121012003F09B
:10105000F9F90021002003F0F5F9002003F0E2F98E
:10106000094B01221A600221044806F0D9FD00BF95
:101070000837BD4680BD00BFD402002068030020B1
:10108000A0860100500200200000002080B586B03C
:1010900000AFF860B9607A603B6000237B6114E0C8
:1010A0004FF07F4003F058FA7B68002B02D07B683A
:1010B000B86898473B68002B04D03B68B8689847ED
:1010C000FFF794FF7B6901337B617A69FB689A4281
:1010D000E6D300BF00BF1837BD4680BD80B483B0E3
:1010E00000AF7860044B01221A7000BF0C37BD4678
:1010F0005DF8047B704700BF5002002080B483B0CD
:1011000000AF78603960064A7B681360054A3B6827
:10111000136000BF0C37BD465DF8047B704700BF0D
:10112000540200205802002080B485B000AF7860DF
:101130007B68002B44D0254A7B68B2FBF3F3013B6C
:10114000FB60FB68B3F5803F02D34FF6FF73FB6093
:101150001F4B1B781A46FB6802FB03F31D4AA2FBD8
:1011600003235B09BB601C4B1B681B68FA68DA62CF
:10117000194B1B68FA68DA60184B1B68002B05D105
:10118000154B1B681B68BA685A631AE0134B1B683F
:10119000042B05D1104B1B681A68BB68936310E0E1
:1011A0000E4B1B68082B05D10B4B1B681A68BB68DC
:1011B000D36306E0084B1B681A68BB68136400E041
:1011C00000BF1437BD465DF8047B704700DD6D003D
:1011D000040000201F85EB5154020020580200201B
:1011E00080B582B000AF594B1B68002B05D0574B20
:1011F0001B68013B554A1360A5E0554B1B78012B3A
:1012000029D1544B1B68002B05D1534B1B681B681D
:1012100000225A6318E04F4B1B68042B05D14E4B3C
:101220001B681A68002393630EE04A4B1B68082B67
:1012300005D1494B1B681A680023D36304E0464B71
:101240001B681A6800231364404B05221A60404B48
:1012500002221A7077E03E4B1B78022B03D03C4BE6
:101260001B78002B6FD13D4B1B68002B05D03C4BEE
:101270001A683C4B1B689A420FD3354B1B78002BE6
:1012800060D0354B1B68334A12681146184609F086
:1012900019F82F4B00221A7054E0304B1A68304B6B
:1012A0001B689B0013441B687B602C4B1A682C4BFB
:1012B0001B6801339B0013441B683B607B68002B59
:1012C00011D07868FFF730FF204A3B681360204B4D
:1012D00001221A70204B1B681E4A126811461846DC
:1012E00008F028FF28E01B4B1B68002B05D11A4B88
:1012F0001B681B6800225A6318E0164B1B68042BFE
:1013000005D1154B1B681A68002393630EE0114B3F
:101310001B68082B05D1104B1B681A680023D36388
:1013200004E00D4B1B681A6800231364074A3B68EE
:101330001360074B02221A70094B1B680233084ADC
:10134000136000E000BF0837BD4680BD5C0200208E
:101350006C0200205802002054020020600200208D
:10136000680200206402002080B582B000AF78607F
:101370003960104B1B68002B17D00E4B1B680E4AB0
:1013800012681146184608F09DFF0C4A7B681360EE
:101390000B4A3B6813600B4B00221A600A4B002279
:1013A0001A600A4B00221A7000E000BF0837BD46E1
:1013B00080BD00BF540200205802002060020020BF
:1013C00064020020680200205C0200206C02002001
:1013D00080B582B000AF786039603A6879680448B7
:1013E00005F06FF8034618460837BD4680BD00BFBC
:1013F000B802002080B584B000AF786039603B68E7
:10140000012B01D8002317E03B6803F18043013B27
:101410009B007A6813441B68FB603B68013B1A46DB
:101420007968074805F04DF8B860BA68FB689A42D9
:1014300001D1012300E0002318461037BD4680BDCE
:10144000B802002080B485B000AFF86008461146AD
:101450001A4603467B810B463B811346FB80FB68A3
:101460007A891A80FB683A895A80FB68FA889A80E0
:10147000FB68BA699A60FB68FA69DA60FB68012266
:101480001A74FB88074AA2FB0323DB089AB2FB68A5
:101490005A82FB6800225A7400BF1437BD465DF8BB
:1014A000047B7047CDCCCCCC80B483B000AF7860E7
:1014B0000B46FB70FB78002B05D0FB78062B02D87F
:1014C0007B68FA781A7400BF0C37BD465DF8047B60
:1014D000704780B584B000AF7B600346FB810B464C
:1014E000BB8113467B81786802F0EAFF7A89B9896B
:1014F000FB89184603F01AFC00BF1037BD4680BDBB
:1015000080B588B000AF0346FB800B46BB80134616
:10151000FB702023FB83FB8B9B08BB8397F9032085
:1015200007F114033D4918460AF07AF93C4802F0E5
:10153000C7FFFB8B9B089AB2FB88134498B2FB8BC6
:101540009B089AB2BB88134499B2FB8B9B089BB251
:101550001A4603F0EBFBFA8B13465B001344002B97
:1015600000DA03339B109AB2FB88134498B2FB8BCA
:101570009B089AB2BB88134499B2FB8B9B089BB221
:101580001A4603F0D3FBB7F906303B81BA88BB8B10
:1015900013449BB202339BB21BB27B81FA88FB8B54
:1015A00013449BB21BB2BB81BA88BB8B13449BB262
:1015B00002339BB21BB2FB81FB8B5B089AB2FB88A8
:1015C00013449BB21BB23B82BA88FB8B13449BB281
:1015D0001BB27B8207F108030321184603F004FDC8
:1015E000104802F09FFF4FF0FF3002F069FF0C48F7
:1015F00002F07EFFFB880B3398B2BB88093399B2A7
:1016000007F11402032303F013F84FF0FF3002F048
:101610006FFF00BF2037BD4680BD00BFA0DA0008C5
:101620000000FFFF5800002080B588B000AF786050
:10163000644802F045FF7B681B88043398B27B68DE
:101640005B88043399B27B689A887B689B8803F037
:1016500013FB7B685B7C002B03D05B4802F030FF00
:1016600004E07B689B68184602F02AFF7B681888B4
:101670007B6859887B689A887B689B8803F0FCFAB2
:101680007B685B7C002B03D04E4802F019FF04E01E
:101690007B68DB68184602F013FF7B6818887B685C
:1016A00059887B689A887B689B8803F0C9F97B68B6
:1016B0001A887B689B885B089BB21344FB837B681A
:1016C0005A887B689B885B089BB21344BB837B680A
:1016D0001A887B689B889B089BB213447B837B683A
:1016E0001A887B689B8819460B465B000B44002BCD
:1016F00000DA03339B109BB213443B837B685A8808
:101700007B689B889B089BB21344FB827B685A884A
:101710007B689B8819460B465B000B44002B00DA64
:1017200003339B109BB21344BB827B685B8A7B8232
:101730007B685B7C002B02D17B68DB6800E0214B7F
:10174000FB607B681B7C03F00103DBB2002B05D040
:101750007A8AB98BF88BFB68FFF7BBFE7B681B7C32
:10176000012B0BD97A8AF98A788BFB68FFF7B1FED7
:101770007A8AB98A388BFB68FFF7ABFE7B681B7CE3
:10178000032B0BD97A8AF98A388BFB68FFF7A1FE05
:101790007A8AB98A788BFB68FFF79BFE7B681B7C93
:1017A000062B0BD17A8AB98B788BFB68FFF791FEF9
:1017B0007A8AB98B388BFB68FFF78BFE00BF203726
:1017C000BD4680BD404040FFD3D3D3FF90B589B024
:1017D00000AF78607B687B610023FB618BE07B69F5
:1017E0001A68FB699B0013441B685B7C002B7ED14D
:1017F00006216FF0050001F043FB386106216FF010
:10180000050001F03DFBF8607B699A68FB695B00AD
:1018100013441A883B699BB213449BB27B837B6958
:10182000DA68FB695B0013441A88FB689BB21344B7
:101830009BB23B83B7F91A30002B01DA00237B837C
:10184000B7F91830002B01DA00233B83B7F91A20CF
:101850007B691968FB699B000B441B689B88C3F17B
:10186000F0039A420ADD7B691A68FB699B00134406
:101870001B689B88C3F1F0039BB27B83B7F91820E8
:101880007B691968FB699B000B441B689B88C3F547
:10189000A0739A420ADD7B691A68FB699B001344B6
:1018A0001B689B88C3F5A0739BB23B837B691A6856
:1018B000FB699B0013441B687A8B1A807B691A684A
:1018C000FB699B0013441B683A8B5A807B691A683A
:1018D000FB699B0013441C680621012001F0D0FA2B
:1018E0000346DBB219462046FFF7DEFD00E000BFED
:1018F000FB690133FB617B691B791A46FB699342E3
:10190000FFF66DAF00BF00BF2437BD4690BD80B568
:1019100084B000AF78607B68BB600023FB6014E09C
:10192000BB681A68FB689B0013441B681846FFF7E6
:101930007BFEBB681A68FB689B0013441B68184653
:10194000FFF772FEFB680133FB60BB681B791A4628
:10195000FB689342E4DB00BF00BF1037BD4680BD8B
:1019600080B485B000AF78607B68BB600023FB600B
:101970001CE0BB689A68FB685B001A44BB68196886
:10198000FB689B000B441B6812881A80BB68DA68EE
:10199000FB685B001A44BB681968FB689B000B443A
:1019A0001B6812885A80FB680133FB60BB681B7997
:1019B0001A46FB689342DCDB00BF00BF1437BD460C
:1019C0005DF8047B7047000080B48FB000AF786092
:1019D00039603B68BB6107F1100300221A60C3F84D
:1019E000032000237B630023BB606F4BFB6000235D
:1019F0003B6320E0BB691A683B6B9B0013441B6888
:101A00001B7CFB75FB7D002B0ED0FB7D062B0BD8C2
:101A1000FB7D03F138023A4412F8282C0132D2B28D
:101A200038333B4403F8282CFB7D7A6B13447B63EB
:101A30003B6B01333B63BB691B791A463B6B93429B
:101A4000D8DB0123FB6216E007F11002FB6A1344A6
:101A50001B78052B0CD13223BB60544BFB607B6899
:101A60001A4607F1080393E8030082E8030094E0B4
:101A7000FB6A0133FB62FB6A062BE5DD002387F876
:101A80002B30002387F82A3001237B6216E007F110
:101A900010027B6A13441B78032B02D1012387F8C1
:101AA0002B3007F110027B6A13441B78022B02D102
:101AB000012387F82A307B6A01337B627B6A062B1D
:101AC000E5DD97F82B30002B10D097F82A30002B4B
:101AD0000CD01923BB60364BFB607B681A4607F1BC
:101AE000080393E8030082E8030056E0002387F828
:101AF0002330002387F822300123FB611CE007F12B
:101B00001002FB6913441B78002B0FD097F8233089
:101B1000013387F8233097F8232097F822309A4230
:101B200007D997F8233087F8223002E0002387F89E
:101B30002330FB690133FB61FB69062BDFDD97F87E
:101B40002230052B0CD12823BB601A4BFB607B682D
:101B50001A4607F1080393E8030082E803001CE03B
:101B600097F82230042B0CD11E23BB60124BFB6074
:101B70007B681A4607F1080393E8030082E8030034
:101B80000BE07B6BBB600D4BFB607B681A4607F17B
:101B9000080393E8030082E8030078683C37BD46F9
:101BA0005DF8047B704700BFA4DA0008ACDA0008D7
:101BB000B4DA0008BCDA0008C8DA0008D8DA00088D
:101BC0002DE9B04FE0B002AF03F0A8FE00F0F6FC44
:101BD00001F092F800F01AFF00F0EEFD01F03EF87F
:101BE00000F01CFE00F05AFE00F07EFF00F054FDF5
:101BF00000F0A4FD00F0B6FD00F01CFF00F0AAFF0D
:101C000000220021002001F05FF9002300220021C2
:101C1000002001F081F9FFF7B9F904217948FFF7B5
:101C20006DFA0523A7F836313C23A7F83431B7F80D
:101C30003631013BC7F83031B7F8363100223B610D
:101C40007A614FF000024FF0000379694B01396966
:101C500043EAD16339694A01B7F836310022BB60E3
:101C6000FA604FF000024FF00003F9684B01B968C9
:101C700043EAD163B9684A01B7F836319B000733AC
:101C8000DB08DB00ADEB030D02AB03339B089B00CD
:101C9000C7F82C31B7F83631013BC7F82831B7F80F
:101CA000363100223B607A604FF000024FF00003B3
:101CB00079680B01396843EA117339680A01B7F88A
:101CC000363100229A4693464FF000024FF000034F
:101CD0004FEA0B1343EA1A734FEA0A12B7F8363188
:101CE0005B000733DB08DB00ADEB030D02AB013318
:101CF0005B085B00C7F82431B7F83631013BC7F801
:101D00002031B7F836310022984691464FF0000254
:101D10004FF000034FEA091343EA18734FEA081221
:101D2000B7F8363100221C4615464FF000024FF03E
:101D300000032B0143EA14732201B7F836315B002C
:101D40000733DB08DB00ADEB030D02AB01335B08AF
:101D50005B00C7F81C310023C7F874318DE0D7F859
:101D6000742113469B0013449B00274A9918D7F807
:101D70002C31D7F8742143F82210D7F87431002B96
:101D800003D0D7F87431012B14D1D7F81C31D7F810
:101D90007421462123F81210D7F87431002B01D199
:101DA000282100E08C21D7F82431D7F8742123F8BA
:101DB000121032E0D7F87431022B15D1D7F81C314C
:101DC000D7F87421872123F81210B7F83431C3F102
:101DD000F003DA0F13445B1099B2D7F82431D7F827
:101DE000742123F8121018E0D7F81C31D7F87421A9
:101DF000C82123F81210D7F87431032B06D12821FB
:101E000005E000BF98040020180500208C21D7F8B9
:101E10002431D7F8742123F81210D7F82C31D7F8D1
:101E2000742153F82200D7F82431D7F8742133F8FD
:101E30001210D7F81C31D7F8742133F81220B7F8F4
:101E40003431D54C01944FF0FF340094FFF7FAFA87
:101E5000D7F82C31D7F8742153F8224006210120FD
:101E600001F00EF80346DBB219462046FFF71CFBD3
:101E7000D7F874310133C7F87431B7F83631D7F871
:101E800074219A42FFF66BAFD7F82C31C7F8F830BF
:101E9000B7F83631DBB287F8FC30D7F82431C7F811
:101EA0000031D7F81C31C7F8043107F1F00307F10E
:101EB000F80211461846FFF787FD01F0D9F801F046
:101EC000A1F80346002B05D10021002001F07AF88B
:101ED00001F0B0F80023C7F87031B04B5B68C7F869
:101EE0006C310023C7F868310023C7F86431002340
:101EF00087F86331002387F862310023C7F85C312B
:101F0000002387F85B310023C7F85431A44B00222B
:101F10001A70032387F85331002387F852310023C6
:101F2000C7F84C31002387F84B314FF44873C7F89A
:101F3000183103F059FDC7F81401FFF70BF80346F9
:101F400087F81331002387F84A3107F1BC03D7F82B
:101F500070219449184609F063FC07F17C03D7F817
:101F600064219149184609F05BFCD7F8F42007F189
:101F70005C038E49184609F053FC07F19C00D7F822
:101F80006C31D7F868218A4909F04AFC07F1DC0373
:101F9000184600F0E7FF824B1B78022B26D197F8FA
:101FA000132197F86231D31A002BB8BF5B42052B7F
:101FB0001CDD012387F85B31D7F81431C7F85C3199
:101FC00097F8133187F8623197F81331632B07D8EC
:101FD00097F81331774AA2FB03231B09DBB200E019
:101FE000042387F86331012387F84A31D7F8142195
:101FF000D7F85431D31AB3F57A7F0BD307F1DC034A
:10200000184600F0AFFFD7F81431C7F85431012358
:1020100087F84A3197F85B31002B0ED0D7F814219E
:10202000D7F85C31D31A41F28832934205D90023A4
:1020300087F85B31012387F84A315F4B1B78002B0F
:1020400008D15E4B1B78DBB2002B03D120215C480A
:10205000FFF78AF9524B1B78042B00F2228201A26F
:1020600052F823F0792000089F2000082B21000857
:102070003F22000843230008504B1B78DBB2002BA3
:1020800000F0FA814D4B00221A70032387F8533178
:10209000434B01221A70012387F84A31ECE10023F7
:1020A000C7F844310CE0D7F82C31D7F8442153F865
:1020B000223000225A74D7F844310133C7F8443132
:1020C000D7F84431042BEEDD24213E48FFF74CF9CC
:1020D00007F1F8013C4B3D4A0F20FEF7D7FF07F10F
:1020E000F8031846FFF73CFC07F1180307F1F80264
:1020F00011461846FFF768FC07F5BC73A3F5B072EC
:1021000007F1F00392E8030083E80300D7F8F0300A
:10211000C7F8643103F068FCC7F85C01204B022269
:102120001A70012387F84A31BBE197F81331632B0A
:1021300007D897F813311F4AA2FB03231B09DBB210
:1021400000E00423C7F80C3197F86331D7F80C216D
:102150009A420AD0D7F80C3187F86331D7F8143196
:10216000C7F85C31012387F84A31144B00221A70FA
:102170000121174805F056F90346012B40D197F885
:102180004B31002B26D1012387F84B31D7F814317E
:10219000C7F84C3172E100BF0000FFFF800500204E
:1021A00015050020DCDA0008E8DA0008F4DA000897
:1021B00000DB0008CDCCCCCC6C0200201405002044
:1021C00018DB000898DB00080F190008CD1700087D
:1021D0000000024097F84B31012B40F04F81D7F8B7
:1021E0001421D7F84C31D31AD7F818219A4280F02D
:1021F0004581A34B03221A70022387F84B313DE13E
:1022000097F84B31012B16D197F86321D7F82C3171
:1022100053F822305B7C002B0CBF01230023D9B282
:1022200097F86321D7F82C3153F822300A465A74B4
:10223000012387F84A31002387F84B311EE1002340
:1022400087F843310023C7F83C313CE0D7F82C3104
:10225000D7F83C2153F822305B7C002B2ED197F825
:102260004321D7F82C31D7F83C1153F8211007F54A
:10227000BC73A3F5987343F8221097F84321D7F85D
:102280002431D7F83C1133F8111007F5BC73A3F5CE
:102290009E7323F8121097F84321D7F81C31D7F812
:1022A0003C1133F8111007F5BC73A3F5A47323F8A0
:1022B000121097F84331013387F84331D7F83C3196
:1022C0000133C7F83C31D7F83C31042BBEDD97F819
:1022D0004331002B2BD007F5BC73A3F5AC7307F18A
:1022E00048021A6007F5BC73A3F5AC7397F8432155
:1022F0001A7107F5BC73A3F5AC7307F13C029A6041
:1023000007F5BC73A3F5AC7307F13002DA60242142
:102310005C48FFF729F807F120015B4B5B4A14206A
:10232000FEF7B4FE07F120031846FFF719FB544BE4
:1023300004221A70002387F85231012387F84A31AA
:10234000AFE097F85231002B76D107F1180307F16F
:10235000F80211461846FFF737FB07F5BC73A3F5E3
:10236000B07207F1F00392E8030083E80300012351
:1023700087F84A31012387F85231D7F868310133A1
:10238000C7F86831D7F86821D7F86C319A4203D979
:10239000D7F86831C7F86C31D7F86421D7F87031B5
:1023A0009A4210D9D7F86431C7F87031D7F86C1158
:1023B000D7F8700100F006FE00F03CFE1021344812
:1023C000FEF7D2FF23E097F95331DBB2013BDBB2DA
:1023D00087F8533197F95331002B11DC1C212D481C
:1023E000FEF7C2FF0023C7F870310023C7F8683139
:1023F000D7F86C11002000F0E5FD00F01BFE03E0B3
:1024000008212548FEF7B0FF012387F84A31002351
:10241000C7F838310CE0D7F82C31D7F8382153F809
:10242000223000225A74D7F838310133C7F83831D6
:10243000D7F83831042BEEDD184B1B78DBB2002BBC
:102440002ED0164B00221A7097F95331002B05DD60
:10245000D7F86421D7F870319A4206D9032387F858
:102460005331074B00221A7002E0054B01221A700B
:10247000012387F84A3113E000BF12E000BF10E0EB
:102480001505002098DB00080F190008CD1700087B
:1024900048DC000888DC000828DC0008140500205F
:1024A00000BF97F84A31002B3FF443AD4FF07F4017
:1024B00002F052F807F1F8031846FFF728FA97F8E8
:1024C0005B31002B20D097F86321D7F82C3153F8DB
:1024D0002230C7F80831334801F0F2FFD7F808314D
:1024E0001B88023B98B2D7F808315B88023B99B24F
:1024F000D7F808319B8804339AB2D7F808319B8803
:1025000004339BB202F09CFA97F953311A460A2120
:102510000A20FEF7F5FF244802F004F8234801F0F2
:10252000E7FF6FF0FF0001F0CBFF07F19C020223F1
:102530000A21002002F07CF84FF0FF3001F0D8FFB4
:102540001B4801F0EFFF174801F0BAFF07F1BC028A
:1025500001230A21002002F06BF807F17C0201231D
:102560002321002002F064F807F1DC0201234FF47C
:102570009171002002F05CF80E4B1B78042B0DD1FA
:10258000094801F0CFFF0C4801F09AFF07F15C0207
:1025900001234FF48771002002F04AF8FEF726FD70
:1025A000C7E400BFFF0000FF58000020800080FF4C
:1025B00050000020150500200000FFFF80B594B0FA
:1025C00000AF07F1200330220021184609F08DF9F1
:1025D00007F10C0300221A605A609A60DA601A61EF
:1025E0000023BB602A4B1B6C294A43F080531364C1
:1025F000274B1B6C03F08053BB60BB6800237B60E0
:10260000244B1B6823F44043224A43F48043136065
:10261000204B1B6803F440437B607B6809233B62CB
:102620004FF480337B6201237B630223BB634FF44F
:102630008003FB6310233B64B4237B640223BB64ED
:102640000423FB6407F12003184605F08BFC0346C6
:10265000002B01D000F00EFC0F23FB6002233B6136
:1026600000237B614FF4A053BB614FF48053FB61A7
:1026700007F10C030121184605F0ECFE0346002B80
:1026800001D000F0F7FB00BF5037BD4680BD00BF52
:10269000003802400070004080B584B000AF3B4677
:1026A00000221A605A609A60DA60214B214A1A604F
:1026B0001F4B00225A601E4B00229A601C4B0022C6
:1026C0001A611B4B00221A76194B002283F8202036
:1026D000174B0022DA62164B174A9A62144B0022FB
:1026E000DA60134B0122DA61114B002283F83020AB
:1026F0000F4B01225A610E4803F0A6F90346002B46
:1027000001D000F0B7FB07233B6001237B6000236F
:10271000BB603B461946064803F078FB0346002B96
:1027200001D000F0A7FB00BF1037BD4680BD00BF41
:1027300070020020002001400100000F80B500AFB2
:10274000064B074A1A60054803F09FFE0346002B1C
:1027500001D000F08FFB00BF80BD00BFB802002099
:102760000030024080B582B000AF3B4600221A60C4
:102770005A600F4B0F4A1A600D4803F0D5FE03460E
:10278000002B01D000F076FB00233B6000237B6030
:102790003B4610221946064803F0E8FE0346002B8C
:1027A00001D000F067FB00BF0837BD4680BD00BF09
:1027B000C00200200074004080B500AF154B164ADF
:1027C0001A60144B00225A60124B00229A60114B7F
:1027D0000022DA600F4B00229A620E4B0022DA626E
:1027E0000C4B00221A630B4B00225A63094804F079
:1027F000D5F80346002B01D000F03CFB0121054831
:1028000004F02AFA0346002B01D000F033FB00BF8E
:1028100080BD00BFD402002000B0024080B500AFF0
:102820001B4B1C4A1A601A4B1B4A5A60184B002259
:102830009A60174B0022DA60154B4FF480421A6100
:10284000134B00225A61124B00229A61104B002256
:10285000DA610F4B00221A620D4804F02DFE034688
:10286000002B01D000F006FB0021094804F068FFAE
:102870000346002B01D000F0FDFA0021044804F0CB
:102880009BFF0346002B01D000F0F4FA00BF80BD8F
:1028900014030020005C0040A086010080B59AB0BF
:1028A00000AF07F1340334220021184609F01DF867
:1028B0003B4634220021184609F017F8504B514A84
:1028C0001A604F4B00225A604D4B00229A604C4BCD
:1028D0000022DA604A4B00221A61494B07225A61F2
:1028E000474B03229A61464B0E22DA61444B052284
:1028F0001A62434BFE225A62414B40F245129A62E1
:102900003F4B4FF48272DA623D4B40F247121A633A
:102910003B4B002283F83420394B002283F83520CA
:10292000374B002283F83620354804F084FF0346F5
:10293000002B01D000F09EFA00237B63F023BB63E1
:102940000023FB634FF4A0733B6400237B64FF23ED
:10295000BB640023FB644FF480633B6505237B6508
:102960004FF05043BB65F023FB654FF4A0733B660B
:10297000002387F86430002387F86530002387F848
:10298000663007F13403002219461D4805F0A8F807
:102990000346002B01D000F06DFA00233B60F023CA
:1029A0007B600023BB604FF4A073FB6000233B619E
:1029B000FF237B610023BB614FF48063FB61052330
:1029C0003B62114B7B62F023BB624FF4A073FB624E
:1029D000002387F83030002387F83130002387F850
:1029E00032303B4601221946054805F079F8034686
:1029F000002B01D000F03EFA00BF6837BD4680BD15
:102A0000680300200068014000B004D080B500AF2A
:102A1000064B074A1A60054806F0E8F80346002B03
:102A200001D000F027FA00BF80BD00BF10040020D5
:102A30000008065080B586B000AF3B1D00221A602A
:102A40005A609A60DA601A6100233B60244B254A81
:102A50001A60234B00225A60214B7F229A60204B40
:102A6000FF22DA601E4B00221A611D4B00225A61C0
:102A70001B4B00229A611A4806F038F90346002BD6
:102A800001D000F0F7F910233B7115237B7100236F
:102A9000BB7100233B6100237B613B1D0122194672
:102AA0000F4806F0A4F90346002B01D000F0E2F92C
:102AB00001233B7001237B700123BB700023FB705B
:102AC0003B4601221946064806F089FA0346002BC8
:102AD00001D000F0CFF900BF1837BD4680BD00BF60
:102AE000200400200028004080B500AF174B184A92
:102AF0001A60164B4FF482725A60144B00229A608F
:102B0000124B0022DA60114B00221A610F4B002297
:102B10005A610E4B4FF400729A610C4B0022DA613D
:102B20000A4B00221A62094B00225A62074B00220C
:102B30009A62064B0A22DA62044806F0A4FC0346B5
:102B4000002B01D000F096F900BF80BD40040020AA
:102B50000050014080B592B000AF07F14003002261
:102B60001A605A6007F1240300221A605A609A60C2
:102B7000DA601A615A619A613B1D202200211846D1
:102B800008F0B3FE334B344A1A60324B18225A60B5
:102B9000304B00229A602F4B4FF47A72DA602D4B43
:102BA00000221A612B4B00225A612A4B00229A61A3
:102BB000284807F06FFA0346002B01D000F05AF9BD
:102BC00000233B6400237B6407F14003194621483E
:102BD00007F026FF0346002B01D000F04BF96023DD
:102BE0007B620023BB620023FB6200233B63002364
:102BF0007B630023BB630023FB6307F124030422F0
:102C00001946144807F0CEFB0346002B01D000F014
:102C100031F900237B600023BB600023FB600023AD
:102C20003B6100237B614FF40053BB6100233B6297
:102C30003B1D1946074807F06FFF0346002B01D0E4
:102C400000F018F9034800F093FD00BF4837BD4677
:102C500080BD00BF980400200000014080B588B00E
:102C600000AF3B1D00221A605A609A60DA601A6158
:102C70005A619A611E4B1F4A1A601D4B01225A600D
:102C80001B4B00229A601A4B0422DA60184B102268
:102C90001A61174B40225A61154B80229A61144BDE
:102CA0000022DA61124B00221A62114B00225A6292
:102CB0000F4B00229A6210237B601023BB6010230D
:102CC000FB6010233B6110237B611023BB61102349
:102CD000FB613B1D1946064806F044FB0346002BEA
:102CE00001D000F0C7F800BF2037BD4680BD00BF4F
:102CF000E0040020400100A080B58EB000AF07F1D5
:102D0000240300221A605A609A60DA601A61002374
:102D10003B62434B1B6B424A43F020031363404B1F
:102D20001B6B03F020033B623B6A0023FB613C4BBF
:102D30001B6B3B4A43F080031363394B1B6B03F05F
:102D40008003FB61FB690023BB61354B1B6B344A7D
:102D500043F004031363324B1B6B03F00403BB61AA
:102D6000BB6900237B612E4B1B6B2D4A43F0010393
:102D700013632B4B1B6B03F001037B617B69002307
:102D80003B61274B1B6B264A43F002031363244B22
:102D90001B6B03F002033B613B690023FB60204B8C
:102DA0001B6B1F4A43F0400313631D4B1B6B03F067
:102DB0004003FB60FB680023BB60194B1B6B184A88
:102DC00043F010031363164B1B6B03F01003BB603F
:102DD000BB6800237B60124B1B6B114A43F0080356
:102DE00013630F4B1B6B03F008037B607B680123AD
:102DF0007B624FF48813BB620023FB6207F124035C
:102E00001946084804F056F800220E21062003F067
:102E100006FB062003F01FFB00BF3837BD4680BD10
:102E2000003802400000024080B584B000AF034685
:102E3000FB80FB88012B12D10B4B1B78022B0ED091
:102E400002F0D2FDF860094B1B68FA68D31AC82B50
:102E500005D9074B01221A70044AFB68136000BFB2
:102E60001037BD4680BD00BF150500207C05002041
:102E70001405002080B400AF72B600BF00BFFDE7AC
:102E800080B584B000AF786039600023FB6007F143
:102E90000C0319460B4805F0D3FE0346002B01D066
:102EA0007B680BE0FB6839687A688A1A0132B3FBE9
:102EB000F2F101FB02F29A1A7B68134418461037AC
:102EC000BD4680BD1004002080B588B000AF034629
:102ED000FB710B46BB7113467B7107F10C0300229B
:102EE0001A605A609A60DA601A61FB793B73BB79A9
:102EF0007B737B79BB730023BB610023FB6107F10C
:102F00000C0300221946034805F071FF00BF20376B
:102F1000BD4680BD2004002090B585B000AF0446BA
:102F2000084611461A462346FB710346BB710B4601
:102F30007B7113463B710023FB60FB793B737B790C
:102F40007B73BB79BB733B79FB7307F10C030022E6
:102F50001946034806F043F800BF1437BD4690BD3C
:102F60002004002080B58AB002AF786007F10C031E
:102F700000221A605A609A60DA601A610023BB600E
:102F800007F10C03002219460C4805F0CAFF07F1AF
:102F9000080300221946094806F0A5F83B7B1A46AB
:102FA0007B7B1946BB7B00930B460549786808F08C
:102FB00037FC00BF2037BD4680BD00BF2004002085
:102FC00008DB000880B584B000AF786039600C4A37
:102FD0007B6813600A4A3B685360094B1B68BB60FF
:102FE000074B5B68FB6007F1080302211846FEF7F8
:102FF000EFF90346024A936000BF1037BD4680BD1B
:103000008005002080B584B000AF094B1B687B6051
:10301000074B5B68BB60064B9B68FB603B1D032155
:103020001846FEF7E7F9034618461037BD4680BD3F
:103030008005002080B500AF0B4B1B681A460021AD
:103040000A4806F05DF9084B5B681A4602210748FA
:1030500006F056F9044B9B681A460121034806F016
:103060004FF900BF80BD00BF800500202004002074
:1030700080B500AF00210B4806F05CF903460A4A10
:1030800013600221074806F055F90346064A5360CB
:103090000121044806F04EF90346034A936000BF3D
:1030A00080BD00BF200400208005002080B483B0D4
:1030B00000AF00237B60104B5B6C0F4A43F48043EE
:1030C00053640D4B5B6C03F480437B607B6800238F
:1030D0003B60094B1B6C084A43F080531364064B5A
:1030E0001B6C03F080533B603B6800BF0C37BD4650
:1030F0005DF8047B704700BF0038024080B58AB09D
:1031000000AF786007F1140300221A605A609A60D9
:10311000DA601A617B681B68174A934227D1002343
:103120003B61164B5B6C154A43F480735364134B3D
:103130005B6C03F480733B613B690023FB600F4BC6
:103140001B6B0E4A43F0010313630C4B1B6B03F024
:103150000103FB60FB6880237B610323BB610023C9
:10316000FB6107F114031946054803F0A3FE00BFF5
:103170002837BD4680BD00BF002001400038024016
:103180000000024080B485B000AF78607B681B68A7
:103190000B4A93420DD10023FB600A4B1B6B094A7B
:1031A00043F480531363074B1B6B03F48053FB60A2
:1031B000FB6800BF1437BD465DF8047B704700BF55
:1031C000003002400038024080B58AB000AF78601D
:1031D00007F1140300221A605A609A60DA601A61DB
:1031E0007B681B68174A934227D100233B61164B2B
:1031F0001B6C154A43F000531364134B1B6C03F014
:1032000000533B613B690023FB600F4B1B6B0E4A75
:1032100043F0010313630C4B1B6B03F00103FB60D2
:10322000FB6820237B610323BB610023FB6107F163
:1032300014031946054803F03DFE00BF2837BD467C
:1032400080BD00BF00740040003802400000024012
:1032500080B485B000AF78607B681B680B4A9342EE
:103260000DD10023FB600A4B1B6B094A43F400039A
:103270001363074B1B6B03F40003FB60FB6800BF89
:103280001437BD465DF8047B704700BF00B00240B4
:103290000038024080B58AB000AF786007F11403AF
:1032A00000221A605A609A60DA601A617B681B68B3
:1032B000294A93424BD100233B61284B1B6B274A81
:1032C00043F004031363254B1B6B03F004033B61C2
:1032D0003B690023FB60214B1B6B204A43F0010339
:1032E00013631E4B1B6B03F00103FB60FB684FF481
:1032F00000737B611223BB610023FB6103233B62EC
:1033000004237B6207F114031946154803F0D2FD2C
:103310004FF480737B611223BB610023FB610323A5
:103320003B6204237B6207F1140319460D4803F046
:10333000C1FD0023BB60094B1B6C084A43F400032A
:103340001364064B1B6C03F40003BB60BB6800BF37
:103350002837BD4680BD00BF005C004000380240F9
:10336000000802400000024080B59AB000AF7860CB
:1033700007F1540300221A605A609A60DA601A61F9
:1033800007F1240330220021184608F0AEFA7B68CA
:103390001B68854A934240F0028108237B623123F7
:1033A0007B630223FB630023BB6407F124031846FD
:1033B00005F05CFA0346002B01D0FFF75BFD00230C
:1033C0003B627A4B5B6C794A43F080635364774B82
:1033D0005B6C03F080633B623B6A0023FB61734BD1
:1033E0001B6B724A43F020031363704B1B6B03F09B
:1033F0002003FB61FB690023BB616C4B1B6B6B4AB9
:1034000043F001031363694B1B6B03F00103BB61C2
:10341000BB6900237B61654B1B6B644A43F002036D
:103420001363624B1B6B03F002037B617B69002318
:103430003B615E4B1B6B5D4A43F0400313635B4B88
:103440001B6B03F040033B613B690023FB60574B60
:103450001B6B564A43F004031363544B1B6B03F07E
:103460000403FB60FB680023BB60504B1B6B4F4A9F
:1034700043F0080313634D4B1B6B03F00803BB6061
:10348000BB684FF480637B650223BB650023FB654B
:1034900000233B660E237B6607F15403194644481C
:1034A00003F008FD41F658037B650223BB6500234A
:1034B000FB6500233B660E237B6607F15403194628
:1034C0003C4803F0F7FC03237B650223BB65002324
:1034D000FB6500233B6609237B6607F1540319460D
:1034E000354803F0E7FC4FF470637B650223BB654E
:1034F0000023FB6500233B660E237B6607F1540324
:1035000019462D4803F0D6FC4FF40C637B6502236B
:10351000BB650023FB6500233B660E237B6607F13A
:1035200054031946254803F0C5FC4FF498637B65A6
:103530000223BB650023FB6500233B660E237B66ED
:1035400007F1540319461E4803F0B4FC48237B6579
:103550000223BB650023FB6500233B660E237B66CD
:1035600007F154031946174803F0A4FC4FF4A05385
:103570007B650223BB650023FB6500233B660923B3
:103580007B6607F1540319460C4803F093FC0022B4
:103590000021582002F043FF582002F05CFF00BFDA
:1035A0006837BD4680BD00BF00680140003802405A
:1035B00000140240000002400004024000180240D3
:1035C00000080240000C024080B485B000AF786073
:1035D0007B681B680B4A93420DD10023FB600A4BAA
:1035E0005B6B094A43F040035363074B5B6B03F08B
:1035F0004003FB60FB6800BF1437BD465DF8047BE9
:10360000704700BF000806500038024080B58EB0F9
:1036100000AF786007F1080330220021184608F057
:1036200064F97B681B680C4A934211D12023BB606C
:103630004FF400733B6307F10803184605F016F9D1
:103640000346002B01D0FFF715FC044B01221A6042
:1036500000BF3837BD4680BD002800403C0E4742C1
:1036600080B58AB000AF786007F1140300221A60B9
:103670005A609A60DA601A617B681B68194A934243
:103680002CD100233B61184B5B6C174A43F4801329
:103690005364154B5B6C03F480133B613B6900235F
:1036A000FB60114B1B6B104A43F0200313630E4B5E
:1036B0001B6B03F02003FB60FB684FF460737B61BE
:1036C0000223BB610023FB6103233B6205237B6272
:1036D00007F114031946054803F0ECFB00BF283737
:1036E000BD4680BD00500140003802400014024039
:1036F00080B582B000AF78607B681B68084A93424F
:103700000AD1084B5B6C074A23F4801353644FF4CF
:103710006071054803F07AFD00BF0837BD4680BDE3
:1037200000500140003802400014024080B485B0CF
:1037300000AF78607B681B680B4A93420DD1002371
:10374000FB600A4B5B6C094A43F001035364074B6F
:103750005B6C03F00103FB60FB6800BF1437BD46E0
:103760005DF8047B704700BF000001400038024054
:1037700080B588B000AF786007F10C0300221A60B2
:103780005A609A60DA601A617B681B68124A934239
:103790001ED10023BB60114B1B6B104A43F0010389
:1037A00013630E4B1B6B03F00103BB60BB684FF44C
:1037B0000073FB6002233B6100237B610023BB613C
:1037C0000123FB6107F10C031946054803F072FB66
:1037D00000BF2037BD4680BD0000014000380240D8
:1037E0000000024080B586B000AF3B1D00221A6089
:1037F0005A609A60DA601A613B4B1B68002B6FD1EC
:10380000394B01221A6000233B60384B9B6B374ACF
:1038100043F001039363354B9B6B03F001033B6063
:103820003B684FF63F037B600223BB600023FB60D5
:1038300003233B610C237B613B1D19462C4803F09D
:1038400039FB01237B600223BB600023FB60032361
:103850003B610C237B613B1D1946264803F02AFB84
:1038600048F233137B600223BB600023FB60032319
:103870003B610C237B613B1D19461F4803F01AFB7B
:103880004FF683737B600223BB600023FB6003233E
:103890003B610C237B613B1D1946184803F00AFB72
:1038A0004CF203737B600223BB600023FB600323A5
:1038B0003B610C237B613B1D1946114803F0FAFA6A
:1038C00060237B600223BB600023FB6003233B611A
:1038D0000C237B613B1D19460A4803F0EBFA00E01C
:1038E00000BF1837BD4680BD8C050020003802405F
:1038F000001402400008024000180240001002407C
:10390000000C02400004024080B582B000AF786035
:10391000FFF768FF00BF0837BD4680BD80B400AF29
:1039200000BFFDE780B400AF00BFFDE780B400AF8B
:1039300000BFFDE780B400AF00BFFDE780B400AF7B
:1039400000BFFDE780B400AF00BFBD465DF8047B5B
:10395000704780B400AF00BFBD465DF8047B704780
:1039600080B400AF00BFBD465DF8047B704780B5F2
:1039700000AF02F025F8FDF733FC00BF80BD80B535
:1039800000AF012003F080FD00BF80BD80B500AF17
:10399000024803F0EDFF00BF80BD00BF68030020B8
:1039A00080B400AF01231846BD465DF8047B704724
:1039B00080B582B000AF7860396007F0E9FF034658
:1039C00016221A604FF0FF3318460837BD4680BDF7
:1039D00080B582B000AF78604FF0FF317868FFF7B4
:1039E000E7FF00BFFDE780B586B000AFF860B960C3
:1039F0007A6000237B610AE0AFF300800146BB6878
:103A00005A1CBA60CAB21A707B6901337B617A6949
:103A10007B689A42F0DB7B6818461837BD4680BD4C
:103A200080B586B000AFF860B9607A6000237B6132
:103A300009E0BB685A1CBA601B781846AFF30080D7
:103A40007B6901337B617A697B689A42F1DB7B6831
:103A500018461837BD4680BD80B483B000AF78608B
:103A60004FF0FF3318460C37BD465DF8047B7047B6
:103A700080B483B000AF786039603B684FF4005287
:103A80005A60002318460C37BD465DF8047B70472A
:103A900080B483B000AF7860012318460C37BD4670
:103AA0005DF8047B704780B485B000AFF860B96002
:103AB0007A60002318461437BD465DF8047B7047D2
:103AC00080B586B000AF7860144A154BD31A7B617D
:103AD0007B693B61134B1B68002B02D1114B124ACF
:103AE0001A60104B1A687B6813443A699A4207D2ED
:103AF00007F04EFF03460C221A604FF0FF3309E037
:103B0000084B1B68FB60074B1A687B681344054A27
:103B10001360FB6818461837BD4680BD00000320BF
:103B200000040000900500203809002080B400AF98
:103B3000064BD3F88830054A43F47003C2F8883046
:103B400000BFBD465DF8047B704700BF00ED00E09C
:103B5000DFF834D0FFF7EAFF0C480D490D4A002387
:103B600002E0D458C4500433C4188C42F9D30A4A32
:103B70000A4C002301E013600432A242FBD307F099
:103B80000DFFFEF71DF87047000003200000002025
:103B9000340200200C1601083402002038090020ED
:103BA000FEE780B500AF00F05DFACA2000F05DF9D5
:103BB000C32000F067F9082000F064F9502000F0FD
:103BC00061F9CF2000F051F9002000F05BF9C1202D
:103BD00000F058F9302000F055F9ED2000F045F9DB
:103BE000642000F04FF9032000F04CF9122000F09F
:103BF00049F9812000F046F9E82000F036F98520E7
:103C000000F040F9002000F03DF9782000F03AF98A
:103C1000CB2000F02AF9392000F034F92C2000F0F4
:103C200031F9002000F02EF9342000F02BF90220A9
:103C300000F028F9F72000F018F9202000F022F910
:103C4000EA2000F012F9002000F01CF9002000F03A
:103C500019F9B12000F009F9002000F013F91B2038
:103C600000F010F9B62000F000F90A2000F00AF97F
:103C7000A22000F007F9C02000F0F7F8102000F0B3
:103C800001F9C12000F0F1F8102000F0FBF8C52088
:103C900000F0EBF8452000F0F5F8152000F0F2F800
:103CA000C72000F0E2F8902000F0ECF8362000F099
:103CB000DCF8C82000F0E6F8F22000F0D6F800208A
:103CC00000F0E0F8B02000F0D0F8C22000F0DAF800
:103CD000B62000F0CAF80A2000F0D4F8A72000F0BF
:103CE000D1F8272000F0CEF8042000F0CBF82A20ED
:103CF00000F0BBF8002000F0C5F8002000F0C2F88A
:103D0000002000F0BFF8EF2000F0BCF82B2000F0FE
:103D1000ACF8002000F0B6F8002000F0B3F8012065
:103D200000F0B0F83F2000F0ADF8F62000F09DF86C
:103D3000012000F0A7F8002000F0A4F8062000F011
:103D4000A1F82C2000F091F8C82000F079FA262084
:103D500000F08BF8012000F095F8E02000F085F8E5
:103D60000F2000F08FF8292000F08CF8242000F0BC
:103D700089F80C2000F086F80E2000F083F8092066
:103D800000F080F84E2000F07DF8782000F07AF8FE
:103D90003C2000F077F8092000F074F8132000F0C0
:103DA00071F8052000F06EF8172000F06BF8112074
:103DB00000F068F8002000F065F8E12000F055F808
:103DC000002000F05FF8162000F05CF81B2000F0E7
:103DD00059F8042000F056F8112000F053F807209D
:103DE00000F050F8312000F04DF8332000F04AF890
:103DF000422000F047F8052000F044F80C2000F0C5
:103E000041F80A2000F03EF8282000F03BF82F206F
:103E100000F038F80F2000F035F8112000F025F8F8
:103E2000C82000F00DFA292000F01FF82C2000F027
:103E30001CF800BF80BD80B500AF00F013F903216E
:103E4000D32000F02CF803469BB2184680BD80B505
:103E500000AF292000F009F800BF80BD80B500AF99
:103E6000282000F002F800BF80BD80B582B000AF0E
:103E70000346FB71FB79184600F08EF900BF083746
:103E8000BD4680BD80B582B000AF0346FB80FB8895
:103E9000184600F05FF900BF0837BD4680BD80B509
:103EA00082B000AF03460A46FB8013467B717A79E5
:103EB000FB881146184600F091F90346184608376A
:103EC000BD4680BD80B400AFF0231846BD465DF806
:103ED000047B704780B400AF4FF4A0731846BD4612
:103EE0005DF8047B7047000080B500AF194805F00D
:103EF00081FF0346002B2BD1164B174A1A60154B36
:103F00001822DA61134B00229A60124B00225A6188
:103F1000104B00221A610F4B00229A620D4B0722B0
:103F2000DA620C4B0022DA600A4B00221A62094B5B
:103F30004FF400729A61074B00225A62054B4FF40E
:103F400082725A60034800F053F8024805F09BFA69
:103F500000BF80BD940500200050014080B584B0B2
:103F600000AF0346FB710023FB73FB799AB2094B48
:103F70001B6807F10801084805F07AFC0346FB734B
:103F8000FB7B002B01D000F027F8BB6818461037E8
:103F9000BD4680BD440000209405002080B584B05B
:103FA00000AF0346FB800023FB73094B1B68B91D60
:103FB0000122084805F018FB0346FB73FB7B002B2E
:103FC00001D000F009F800BF1037BD4680BD00BF2A
:103FD000440000209405002080B500AF034805F0A0
:103FE000DBFAFFF781FF00BF80BD00BF9405002012
:103FF00080B58AB000AF786000233B61174B5B6CE3
:10400000164A43F480135364144B5B6C03F480131F
:104010003B613B690023FB60104B1B6B0F4A43F075
:10402000200313630D4B1B6B03F02003FB60FB6845
:104030004FF460737B610223BB610223FB610123A8
:104040003B6205237B6207F114031946044802F022
:1040500031FF00BF2837BD4680BD00BF0038024099
:104060000014024080B588B000AF364B1B78002B9F
:1040700064D1344B01221A700023BB60324B1B6B9E
:10408000314A43F0080313632F4B1B6B03F0080303
:10409000BB60BB684FF40053FB6001233B6100230E
:1040A0007B610223BB6107F10C031946274802F02C
:1040B00001FF00237B60244B1B6B234A43F0080362
:1040C0001363214B1B6B03F008037B607B684FF489
:1040D0008053FB6001233B6100237B610223BB61B2
:1040E00007F10C031946194802F0E4FE00233B6077
:1040F000154B1B6B144A43F004031363124B1B6BE9
:1041000003F004033B603B680423FB6001233B6135
:1041100000237B610223BB6107F10C0319460C48A5
:1041200002F0C8FE00220421094803F093F901229D
:104130000421074803F08EF9FFF7D6FE00BF2037B1
:10414000BD4680BDEC05002000380240000C024056
:104150000008024080B582B000AF0346FB80012218
:104160004FF400510A4803F075F900220421094870
:1041700003F070F9FB881846FFF710FF01220421B5
:10418000044803F067F900BF0837BD4680BD00BF93
:10419000000C02400008024080B582B000AF034628
:1041A000FB7100224FF400510A4803F053F900223A
:1041B0000421094803F04EF9FB799BB21846FFF73A
:1041C000EDFE01220421044803F044F900BF083742
:1041D000BD4680BD000C02400008024080B584B09E
:1041E00000AF03460A46FB8013467B710023FB6049
:1041F00000220421104803F02DF900224FF4005151
:104200000E4803F027F9FB881846FFF7C7FE7B79B5
:104210001846FFF7A3FEF86001224FF4005107484B
:1042200003F018F901220421034803F013F9FB6895
:1042300018461037BD4680BD00080240000C024001
:1042400080B582B000AF7860786801F0D9FB00BF1C
:104250000837BD4680BD000080B500AF2D4B2E4A0B
:104260001A602C4B09225A612A4B01229A61294B70
:104270001D22DA61274B03221A62264B40F20D12EF
:104280005A62244B40F243129A62224B40F21712B8
:10429000DA62204B40F247121A631E4B002283F869
:1042A00036201C4B002283F834201A4B002283F85E
:1042B00035201A4B08221A60184BC0221A61174B7E
:1042C00004229A61154B4FF400325A62134804F0ED
:1042D000CDFA104B00225A600E4B00229A600D4B13
:1042E0000022DA600B4B00221A6100F05FFF0948E0
:1042F00003F0A1FA0A4B0B4A1A60094B1B681B68B2
:10430000984701F041F9084800F00CF900231846DD
:1043100080BD00BFF005002000680140D8060020E5
:10432000240700200C0000204800002080B500AFCA
:10433000034B1B689B6A98470346184680BD00BF25
:104340002407002080B500AF034B1B68DB6A984749
:104350000346184680BD00BF2407002080B590B0FA
:1043600000AF03463960FB800023FB60FFF7DEFFF0
:1043700003463B6100237B61FFF7E4FF0346BB611B
:104380000023FB613B683B63FF233B6200237B62AE
:10439000002387F83C30002387F83D30002387F85E
:1043A0003E304FF4C063BB620723FB62FFF7BEFFE2
:1043B00003467B63FFF7C6FF0346BB63FA8807F13A
:1043C0000C031946144803F08BFBFA881349134673
:1043D0005B0013449B000B4404334FF0FF321A6020
:1043E000FA880E4913465B0013449B000B440833C4
:1043F0000B4A1A60FA88094913465B0013449B0074
:104400000B444FF07F421A60034803F0A7FB00BF44
:104410004037BD4680BD00BFF00500200C070020DE
:104420004800002080B483B000AF7860044A7B6805
:10443000136000BF0C37BD465DF8047B704700BFBA
:104440000807002080B483B000AF78600B46FB7093
:10445000FB78012B12D1194B1B681A467B68DB01D4
:10446000134484331B68154A126811467A68D201D6
:104470000A44843243F00103136011E00F4B1B68C0
:104480001A467B68DB01134484331B680B4A1268AD
:1044900011467A68D2010A44843223F00103136082
:1044A000064B1B685A6A054B1B6842F001025A62B0
:1044B00000BF0C37BD465DF8047B7047F005002057
:1044C00080B483B000AF7860074B1A680749134681
:1044D0005B0013449B000B447A681A6000BF0C37E2
:1044E000BD465DF8047B7047080700200C070020DC
:1044F00080B483B000AF7860084B1A68084913464F
:104500005B0013449B000B4404337A681A6000BFBD
:104510000C37BD465DF8047B704700BF08070020DC
:104520000C07002080B483B000AF7860084B1A6895
:10453000084913465B0013449B000B4408337A6818
:104540001A6000BF0C37BD465DF8047B704700BFA2
:10455000080700200C070020F0B585B002AF786096
:104560000F4B1C680E4B1B680E4A342101FB03F3F2
:1045700013445C331B681E46FFF7D8FE0546FFF761
:10458000E1FE02467B6801930023009313462A460E
:104590003146204600F0C0FF00BF0C37BD46F0BDDD
:1045A00008070020F005002090B583B000AF034657
:1045B000FB800B46BB801346FB701B4B1A681B49E4
:1045C00013465B0013449B000B4408331B681968B7
:1045D000FB78A3F12000144B1A68144C13465B00BF
:1045E00013449B00234408331B68DB8803FB00F063
:1045F0000D4B1A680D4C13465B0013449B0023447B
:1046000008331B689B880733002B00DA0733DB1065
:1046100000FB03F3CA18B988FB88184600F0C2FEF5
:1046200000BF0C37BD4690BD080700200C070020D6
:10463000B0B588B000AFBA601A460346FB810B469E
:10464000BB811346FB710123FB830023BB83002343
:10465000BB6100233B61BB687B6102E0BB69013346
:10466000BB617B695A1C7A611B78002BF6D1FFF77E
:104670005DFE01464B4B1A684B4813465B001344E2
:104680009B00034408331B689B88B1FBF3F33B6139
:10469000FB79032B1CD0032B33DC012B02D0022B24
:1046A00019D02EE03A69BB69D11A3E4B1A683E48D0
:1046B00013465B0013449B00034408331B689B882C
:1046C00001FB03F35B089AB2FB891344FB831BE0F5
:1046D000FB89FB8318E03A69BB69D31A99B2314B65
:1046E0001A68314813465B0013449B0003440833A7
:1046F0001B689B8811FB03F39AB2FB891344FB836D
:1047000002E0FB89FB8300BF1AE0BB681A78B98915
:10471000FB8B1846FFF748FF224B1A6822491346C5
:104720005B0013449B000B4408331B689A88FB8B87
:104730001344FB83BB680133BB60BB8B0133BB837A
:10474000BB681B78002B14BF01230023DCB2FFF7EA
:10475000EDFDB98B134B1A68134D13465B001344E0
:104760009B002B4408331B689B8801FB03F3C31A8F
:1047700099B20C4B1A680C4813465B0013449B001B
:10478000034408331B689B8899422CBF01230023F4
:10479000DBB22340DBB2002BB7D100BF00BF203714
:1047A000BD46B0BD080700200C070020B0B586B09C
:1047B00002AF0346FB800B46BB8013467B80002381
:1047C000FB60164B1B68164A342101FB03F31344AC
:1047D0005C331C68FFF7AAFD0246BB8803FB02F2AC
:1047E000FB8813449B002344FB600C4B1868F9685A
:1047F0007C880A4B1A680B4D13465B0013449B00E0
:104800002B441B680193002300930123224600F0F0
:1048100083FE00BF1037BD46B0BD00BF08070020B3
:10482000F00500200C070020F0B587B002AF03466A
:10483000FB800B46BB8013467B800023FB60184B3C
:104840001B68184A342101FB03F313445C331C68D2
:10485000FFF76CFD0246BB8803FB02F2FB881344A2
:104860009B002344FB600E4B1C68FD687E88FFF7AD
:104870005DFD0346591E0A4B1A680B4813465B0040
:1048800013449B0003441B680193009133460122AB
:104890002946204600F040FE00BF1437BD46F0BD5B
:1048A00008070020F00500200C07002090B58BB011
:1048B00000AF0446084611461A462346FB800346CD
:1048C000BB800B467B8013463B8000233B8200234A
:1048D000FB810023FB840023BB8400237B84002313
:1048E0003B840023FB830023BB8300237B830023C3
:1048F0003B830023FB820023BB8200237B827A88D8
:10490000FB88D31A002BB8BF5B423B823A88BB8836
:10491000D31A002BB8BF5B42FB81FB88FB84BB88AA
:10492000BB847A88FB889A4204D301237B840123C9
:104930003B8405E04FF6FF737B844FF6FF733B84A7
:104940003A88BB889A4204D30123FB830123BB83AB
:1049500005E04FF6FF73FB834FF6FF73BB83B7F998
:104960001020B7F90E309A4210DB00237B8400231D
:10497000BB833B8A7B83B7F91030DA0F13445B109B
:104980003B83FB89FB823B8ABB820FE000233B8495
:104990000023FB83FB897B83B7F90E30DA0F1344C6
:1049A0005B103B833B8AFB82FB89BB8200237B82BB
:1049B00037E0F88CB98C204B1A68204C13465B000A
:1049C00013449B0023441B681A4600F0C5FC3A8B35
:1049D000FB8A13449BB23B83B7F91820B7F91A300E
:1049E0009A420EDB3A8B7B8BD31A9BB23B83FA8CB9
:1049F0007B8C13449BB2FB84BA8CFB8B13449BB21D
:104A0000BB84FA8C3B8C13449BB2FB84BA8CBB8B6B
:104A100013449BB2BB84B7F912309BB201339BB2F3
:104A20007B82B7F91220B7F914309A42C1DD00BF7A
:104A300000BF2C37BD4690BD080700200C070020A2
:104A400090B583B000AF0446084611461A46234687
:104A5000FB800346BB800B467B8013463B807A88F5
:104A6000B988FB881846FFF7A1FEBA883B88134433
:104A700099B27A88FB881846FFF798FE3A88B98879
:104A8000FB881846FFF7D0FEFA887B8813449BB258
:104A90003A88B9881846FFF7C7FE00BF0C37BD46F5
:104AA00090BD000090B587B000AF0346FB800B4679
:104AB000BB8013467B807B885B00C3F103037B6173
:104AC00000233B617B88FB60C7E03B699AB2FB88AF
:104AD000134498B2FB689BB2BA88D31A99B2644B5C
:104AE0001A68644C13465B0013449B0023441B6804
:104AF0001A4600F031FC3B699BB2FA88D31A98B28F
:104B0000FB689BB2BA88D31A99B2594B1A68594CB0
:104B100013465B0013449B0023441B681A4600F0B5
:104B20001BFCFB689AB2FB88134498B23B699BB2AA
:104B3000BA88D31A99B24E4B1A684E4C13465B0092
:104B400013449B0023441B681A4600F005FCFB68D5
:104B50009BB2FA88D31A98B23B699BB2BA88D31A2F
:104B600099B2434B1A68434C13465B0013449B00B5
:104B700023441B681A4600F0EFFB3B699AB2FB889E
:104B8000134498B2FB689AB2BB88134499B2384B6D
:104B90001A68384C13465B0013449B0023441B687F
:104BA0001A4600F0D9FB3B699BB2FA88D31A98B237
:104BB000FB689AB2BB88134499B22D4B1A682D4CEE
:104BC00013465B0013449B0023441B681A4600F005
:104BD000C3FBFB689AB2FB88134498B23B699AB254
:104BE000BB88134499B2224B1A68224C13465B00CF
:104BF00013449B0023441B681A4600F0ADFBFB687E
:104C00009BB2FA88D31A98B23B699AB2BB88134414
:104C100099B2174B1A68174C13465B0013449B005C
:104C200023441B681A4600F097FB7B69002B06DAC9
:104C30003B699A007B69134406337B610AE03A6959
:104C4000FB68D31A9A007B6913440A337B61FB68C3
:104C5000013BFB603B6901333B613A69FB689A4267
:104C60007FF633AF00BF00BF1C37BD4690BD00BF0D
:104C7000080700200C0700202DE9F04186B002AFA4
:104C80000446084611461A462346FB800346BB806D
:104C90000B467B8013463B800023FB60204B1A6849
:104CA000204913465B0013449B000B441B681846C5
:104CB000FFF706FC1A4B1B681B4A342101FB03F368
:104CC00013445C331C68FFF731FB0246BB8803FBCF
:104CD00002F2FB8813449B002344FB60104B1C68CA
:104CE000FD687E88B7F80080FFF720FB02467B88CE
:104CF000D11A0B4B1A680B4813465B0013449B00F8
:104D000003441B68019300914346324629462046DE
:104D100000F002FC00BF1037BD46BDE8F08100BFC7
:104D2000080700200C070020F005002080B586B0A1
:104D300000AF0346FB800B46BB8013467B807B881D
:104D40005B00C3F103037B6100233B617B88FB6055
:104D5000444B1A68444913465B0013449B000B44C0
:104D60001B681846FFF7ACFB61E0FB68002B21D005
:104D7000FB689BB2FA88D31A98B23B699AB2BB8897
:104D8000134499B2FB689BB25B009BB21A46FFF7D3
:104D90000DFDFB689BB2FA88D31A98B23B699BB2AF
:104DA000BA88D31A99B2FB689BB25B009BB21A46D1
:104DB000FFF7FCFC3B69002B21D03B699BB2FA88D2
:104DC000D31A98B2FB689BB2BA88D31A99B23B69DE
:104DD0009BB25B009BB21A46FFF7E8FC3B699BB2B3
:104DE000FA88D31A98B2FB689AB2BB88134499B276
:104DF0003B699BB25B009BB21A46FFF7D7FC7B690D
:104E0000002B06DA3B699A007B69134406337B6109
:104E10000AE03A69FB68D31A9A007B6913440A33A3
:104E20007B61FB68013BFB603B6901333B613A6995
:104E3000FB689A4299D90B4B1A680B4913465B00E1
:104E400013449B000B441B681846FFF739FB7A8814
:104E5000B988FB881846FFF725FE00BF1837BD4606
:104E600080BD00BF080700200C07002090B58BB064
:104E700000AF0446084611461A462346FB80034607
:104E8000BB800B467B8013463B8000233B82002384
:104E9000FB810023FB840023BB8400237B8400234D
:104EA0003B840023FB830023BB8300237B830023FD
:104EB0003B830023FB820023BB8200237B82BA88D2
:104EC000FB88D31A002BB8BF5B423B823A8F3B88EA
:104ED000D31A002BB8BF5B42FB81FB88FB843B8865
:104EE000BB84BA88FB889A4204D301237B840123C4
:104EF0003B8405E04FF6FF737B844FF6FF733B84E2
:104F00003A8F3B889A4204D30123FB830123BB835E
:104F100005E04FF6FF73FB834FF6FF73BB83B7F9D2
:104F20001020B7F90E309A4210DB00237B84002357
:104F3000BB833B8A7B83B7F91030DA0F13445B10D5
:104F40003B83FB89FB823B8ABB820FE000233B84CF
:104F50000023FB83FB897B83B7F90E30DA0F134400
:104F60005B103B833B8AFB82FB89BB8200237B82F5
:104F70002FE0F88CB98CBB8F7A88FFF797FC3A8BBF
:104F8000FB8A13449BB23B83B7F91820B7F91A3058
:104F90009A420EDB3A8B7B8BD31A9BB23B83FA8C03
:104FA0007B8C13449BB2FB84BA8CFB8B13449BB267
:104FB000BB84FA8C3B8C13449BB2FB84BA8CBB8BB6
:104FC00013449BB2BB84B7F912309BB201339BB23E
:104FD0007B82B7F91220B7F914309A42C9DD00BFBD
:104FE00000BF2C37BD4690BDB0B58CB002AF786025
:104FF0000B467B8000233B830023FB820023FB8442
:105000000023BB840023BB8200237B8200233B82DE
:105010000023FB810023BB8100237B8100237B8451
:1050200000233B840023FB830023BB8300237B837B
:105030007B68B3F90030FB83FB8B3B847B68B3F95F
:1050400002307B837B8BBB8301237B842FE0B7F90A
:1050500022309B007A6813441B88BB81B7F90C206F
:105060003B8C9A4201DABB893B84B7F90C20FB8B5D
:105070009A4201DDBB89FB83B7F922309B007A6835
:1050800013445B887B81B7F90A20BB8B9A4201DA13
:105090007B89BB83B7F90A207B8B9A4201DD7B8930
:1050A0007B83B7F922309BB201339BB27B84B7F983
:1050B00022207B889A42CADB7B88012B72D93A8CEA
:1050C000FB8B1344DA0F13445B10BB827A8BBB8BD0
:1050D0001344DA0F13445B107B827B681B883B828E
:1050E0007B685B88FB8132E07B681B883B837B6845
:1050F0005B88FB827B6804337B607B681B88FB8456
:105100007B685B88BB84388BF98CBC8AFD8ABB8C3E
:105110007A8A019200932B462246FFF7A7FE388B2E
:10512000B98AFC8CFD8A7B8ABA8C019200932B464B
:105130002246FFF79BFEB88AF98C3C8B7D8ABB8C9C
:10514000FA8A019200932B462246FFF78FFE7B8856
:10515000013B7B807B88002BC6D1388AF98CBC8AC6
:10516000FD89BB8C7A8A019200932B462246FFF779
:105170007DFE388AB98AFC8CFD897B8ABA8C0192C3
:1051800000932B462246FFF771FEB88AF98C3C8AC1
:105190007D8ABB8CFA89019200932B462246FFF749
:1051A00065FE00E000BF2837BD46B0BD80B58EB0BB
:1051B00000AF00233B62614B5B6C604A43F080634D
:1051C00053645E4B5B6C03F080633B623B6A00237D
:1051D000FB615A4B1B6B594A43F400031363574B53
:1051E0001B6B03F40003FB61FB690023BB61534BA2
:1051F0001B6B524A43F001031363504B1B6B03F0CC
:105200000103BB61BB6900237B614C4B1B6B4B4AA9
:1052100043F002031363494B1B6B03F002037B61F2
:105220007B6900233B61454B1B6B444A43F00403FD
:105230001363424B1B6B03F004033B613B69002388
:10524000FB603E4B1B6B3D4A43F0080313633B4B33
:105250001B6B03F00803FB60FB680023BB60374B4C
:105260001B6B364A43F020031363344B1B6B03F074
:105270002003BB60BB6800237B60304B1B6B2F4A55
:1052800043F0400313632D4B1B6B03F040037B6023
:105290007B6841F658037B620223BB620023FB62FA
:1052A00002233B630E237B6307F124031946244842
:1052B00001F000FE4FF470637B6207F1240319468E
:1052C000204801F0F7FD4FF498637B6207F1240357
:1052D00019461D4801F0EEFD48237B6207F12403C7
:1052E00019461A4801F0E6FD4FF480637B6207F12E
:1052F00024031946164801F0DDFD4FF40C637B6270
:1053000007F124031946134801F0D4FD03237B62FF
:1053100009237B6307F1240319460A4801F0CAFDFB
:105320004FF4A0537B6207F124031946094801F0AA
:10533000C1FD00BF3837BD4680BD00BF0038024008
:10534000000002400004024000080240000C02403D
:105350000014024000180240B0B582B000AF03460E
:105360003A60FB800B46BB800C4B1B680C4A342117
:1053700001FB03F313445C331C68BD88FEF7D6FFC2
:10538000034603FB05F2FB8813449B0023441A46A3
:105390003B68136000BF0837BD46B0BD080700205A
:1053A000F005002080B588B000AF03463A60FB806E
:1053B0000B46BB800023FB610023BB6100237B61A4
:1053C000534B1A68534913465B0013449B000B442C
:1053D00008331B68DB887B824D4B1A684D491346A6
:1053E0005B0013449B000B4408331B689B883B8283
:1053F0003B8A0733002B00DA0733DB10DBB2DB001C
:10540000DAB23B8ADBB2D31AFB730023FB6176E08E
:105410003B8A0733002B00DA0733DB101A46FB699F
:1054200002FB03F33A681344BB603B8A0733002B4B
:1054300000DA0733DB10012B02D0022B04D00CE082
:10544000BB681B787B6116E0BB681B781B02BA68DF
:105450000132127813437B610DE0BB681B781A049C
:10546000BB6801331B781B021343BA6802321278FF
:1054700013437B6100BF0023BB6136E03A8ABB69FE
:10548000D21AFB7B1344013B012202FA03F31A46B2
:105490007B691340002B12D0BB699AB2FB8813447E
:1054A00098B21B4B1A681B4913465B0013449B00C0
:1054B0000B441A68BB881946FFF74EFF12E0BB6920
:1054C0009AB2FB88134498B2114B1A6811491346DB
:1054D0005B0013449B000B4404331A68BB881946D5
:1054E000FFF73AFFBB690133BB613B8ABA699A4255
:1054F000C4D3BB880133BB80FB690133FB617B8A6A
:10550000FA699A4284D300BF00BF2037BD4680BDF0
:10551000080700200C07002080B586B002AFF860B5
:10552000B9607A603B60164B4FF440325A60144BBE
:1055300000229A60124ABB69D360114B114A1A606B
:105540000F4801F02BFA0346002B15D1F9680C48DF
:1055500001F082FB0346002B0ED1BA683B68009332
:105560007B68F969064801F062FA0346002B03D113
:105570000A21034801F086FA00BF1037BD4680BDFE
:105580009806002000B0024080B500AF294B2A4A9F
:105590001A602A4B02221A60284B07225A60274BB6
:1055A00004229A60254B0722DA60244B02221A61FA
:1055B000224B02225A61214B02229A611D4B012289
:1055C0005A601C4B00229A601A4B0422DA60194B75
:1055D00010221A61174B40225A61164B4FF4C072C9
:1055E0009A61144B0022DA61124B4FF400621A6286
:1055F000104B00225A620F4B4FF400529A62002166
:105600000C4800F07FF80D490A4803F0ABFE034652
:10561000002B03D00A4B01221A7002E0084B002233
:105620001A7040F26A5000F00DF8054B1B781846CE
:1056300080BD00BF28070020400100A05C070020BB
:105640006000002080B584B000AF78600023FB606C
:105650002A4B01221A60294B08225A60274B01224B
:105660009A60264B0022DA604FF6FF7223492448E5
:1056700003F0ACFE012000F0C3F9204B02221A60B7
:105680001E4B08225A601D4B01229A601B4B0022C0
:10569000DA604FF6FF721949194803F097FE174B6D
:1056A00003221A60154B08225A60144B04229A6098
:1056B000124B0022DA604FF6FF721049104803F0D7
:1056C00085FE4FF40C73FB600C4B04221A600B4BED
:1056D00008225A60094B01229A60FB68074AD3608E
:1056E0004FF6FF720549064803F070FE79680448DA
:1056F00003F0A1FE00BF1037BD4680BD7807002033
:105700002807002080B590B000AF786039607B68D2
:10571000002B00F0EC800023BB62774B9B6B764A3A
:1057200043F001039363744B9B6B03F00103BB6273
:10573000BB6A00237B62704B1B6B6F4A43F4800390
:1057400013636D4B1B6B03F480037B627B6A002346
:105750003B62694B1B6B684A43F002031363664B61
:105760001B6B03F002033B623B6A0023FB61624B4D
:105770001B6B614A43F0040313635F4B1B6B03F025
:105780000403FB61FB690023BB615B4B1B6B5A4A43
:1057900043F008031363584B1B6B03F00803BB6112
:1057A000BB6900237B61544B1B6B534A43F01003CE
:1057B0001363514B1B6B03F010037B617B69002368
:1057C0003B614D4B1B6B4C4A43F0200313634A4B28
:1057D0001B6B03F020033B613B690023FB60464BDE
:1057E0001B6B454A43F040031363434B1B6B03F0B1
:1057F0004003FB60FB6802233B630223BB6300237F
:105800007B630C23FB636023FB6207F12C031946C7
:105810003A4801F04FFB0123FB6207F12C031946C4
:10582000374801F047FB4CF20373FB6207F12C038E
:105830001946344801F03EFB4FF68373FB6207F1D3
:105840002C031946304801F035FB4FF63F03FB624D
:1058500007F12C0319462D4801F02CFB48F23313B5
:10586000FB6207F12C031946294801F023FB294B61
:1058700000225A60274B80229A60264B4FF4007218
:10588000DA60244B4FF480621A61224B4FF480524D
:105890005A61204B4FF480429A611E4B0022DA611C
:1058A0001C4B4FF400321A621A4B00225A62194BF9
:1058B00003229A62174B0022DA62164B00221A6307
:1058C000144B154A1A607B68124A1A63114A7B68A6
:1058D0009363104800F052FF0E4800F0A1FE002232
:1058E0000F21382000F09BFD382000F0B4FD00BFF0
:1058F0004037BD4680BD00BF003802400004024072
:1059000000080240000C0240001002400014024057
:1059100000180240880700201064024080B500AFE4
:105920000E4B1B680D4A43F4007313600B4B1B684E
:105930000A4A43F480631360084B1B68074A43F428
:1059400080731360032000F05FFD0F2000F008F863
:10595000FDF7ACFB0023184680BD00BF003C0240B1
:1059600080B582B000AF7860124B1A68124B1B787A
:1059700019464FF47A73B3FBF1F3B2FBF3F3184615
:1059800000F077FD0346002B01D001230EE07B6879
:105990000F2B0AD8002279684FF0FF3000F03FFD4E
:1059A000064A7B681360002300E00123184608378D
:1059B000BD4680BD08000020680000206400002073
:1059C00080B400AF064B1B781A46064B1B68134485
:1059D000044A136000BFBD465DF8047B704700BFFA
:1059E00068000020E807002080B400AF034B1B686C
:1059F0001846BD465DF8047B704700BFE8070020ED
:105A000080B584B000AF7860FFF7EEFFB8607B68C8
:105A1000FB60FB68B3F1FF3F05D00A4B1B781A46C9
:105A2000FB681344FB6000BFFFF7DEFF0246BB6864
:105A3000D31AFA689A42F7D800BF00BF1037BD46A4
:105A400080BD00BF6800002080B584B000AF7860E2
:105A50000023FB737B68002B01D1012333E07B68BB
:105A60001B6C002B09D17868FDF748FB7B6800228E
:105A70005A647B68002283F83C207B681B6C03F02F
:105A80001003002B18D17B681B6C23F4885323F080
:105A9000020343F002027B681A64786800F0E8FAB7
:105AA0007B6800225A647B681B6C23F0030343F07D
:105AB00001027B681A6401E00123FB737B6800220A
:105AC00083F83C20FB7B18461037BD4680BD0000A4
:105AD00080B485B000AF78600023BB607B6893F82A
